{
  "_format": "hh-sol-artifact-1",
  "contractName": "Airdrop",
  "sourceName": "contracts/Airdrop.sol",
  "abi": [
    {
      "inputs": [
        {
          "internalType": "address",
          "name": "flushAddress_",
          "type": "address"
        },
        {
          "components": [
            {
              "internalType": "uint256",
              "name": "deadline",
              "type": "uint256"
            },
            {
              "internalType": "bytes32",
              "name": "root",
              "type": "bytes32"
            },
            {
              "internalType": "string",
              "name": "name",
              "type": "string"
            }
          ],
          "internalType": "struct Airdrop.Root[]",
          "name": "roots",
          "type": "tuple[]"
        }
      ],
      "stateMutability": "nonpayable",
      "type": "constructor"
    },
    {
      "anonymous": false,
      "inputs": [
        {
          "indexed": false,
          "internalType": "bytes",
          "name": "airdrop",
          "type": "bytes"
        },
        {
          "indexed": true,
          "internalType": "address",
          "name": "addr",
          "type": "address"
        },
        {
          "indexed": false,
          "internalType": "uint256",
          "name": "amount",
          "type": "uint256"
        },
        {
          "indexed": false,
          "internalType": "bytes32",
          "name": "root",
          "type": "bytes32"
        }
      ],
      "name": "AirdropClaimed",
      "type": "event"
    },
    {
      "anonymous": false,
      "inputs": [
        {
          "indexed": true,
          "internalType": "address",
          "name": "previousOwner",
          "type": "address"
        },
        {
          "indexed": true,
          "internalType": "address",
          "name": "newOwner",
          "type": "address"
        }
      ],
      "name": "OwnershipTransferred",
      "type": "event"
    },
    {
      "inputs": [
        {
          "components": [
            {
              "internalType": "uint256",
              "name": "deadline",
              "type": "uint256"
            },
            {
              "internalType": "bytes32",
              "name": "root",
              "type": "bytes32"
            },
            {
              "internalType": "string",
              "name": "name",
              "type": "string"
            }
          ],
          "internalType": "struct Airdrop.Root",
          "name": "root_",
          "type": "tuple"
        }
      ],
      "name": "addAirdrop",
      "outputs": [],
      "stateMutability": "nonpayable",
      "type": "function"
    },
    {
      "inputs": [
        {
          "internalType": "address",
          "name": "account",
          "type": "address"
        },
        {
          "internalType": "string",
          "name": "name",
          "type": "string"
        },
        {
          "internalType": "address",
          "name": "token",
          "type": "address"
        },
        {
          "internalType": "uint256",
          "name": "amount",
          "type": "uint256"
        },
        {
          "internalType": "bytes32",
          "name": "merkleRoot",
          "type": "bytes32"
        },
        {
          "internalType": "bytes32[]",
          "name": "merkleProof",
          "type": "bytes32[]"
        }
      ],
      "name": "canClaim",
      "outputs": [
        {
          "internalType": "bool",
          "name": "",
          "type": "bool"
        }
      ],
      "stateMutability": "view",
      "type": "function"
    },
    {
      "inputs": [
        {
          "internalType": "string",
          "name": "name",
          "type": "string"
        },
        {
          "internalType": "address",
          "name": "token",
          "type": "address"
        },
        {
          "internalType": "uint256",
          "name": "amount",
          "type": "uint256"
        },
        {
          "internalType": "bytes32",
          "name": "merkleRoot",
          "type": "bytes32"
        },
        {
          "internalType": "bytes32[]",
          "name": "merkleProof",
          "type": "bytes32[]"
        }
      ],
      "name": "claim",
      "outputs": [],
      "stateMutability": "nonpayable",
      "type": "function"
    },
    {
      "inputs": [
        {
          "internalType": "address",
          "name": "token_",
          "type": "address"
        }
      ],
      "name": "flush",
      "outputs": [],
      "stateMutability": "nonpayable",
      "type": "function"
    },
    {
      "inputs": [],
      "name": "flushAddress",
      "outputs": [
        {
          "internalType": "address",
          "name": "",
          "type": "address"
        }
      ],
      "stateMutability": "view",
      "type": "function"
    },
    {
      "inputs": [
        {
          "internalType": "bytes32",
          "name": "",
          "type": "bytes32"
        }
      ],
      "name": "merkleRoots",
      "outputs": [
        {
          "internalType": "uint256",
          "name": "deadline",
          "type": "uint256"
        },
        {
          "internalType": "bytes32",
          "name": "root",
          "type": "bytes32"
        },
        {
          "internalType": "string",
          "name": "name",
          "type": "string"
        }
      ],
      "stateMutability": "view",
      "type": "function"
    },
    {
      "inputs": [
        {
          "internalType": "string",
          "name": "",
          "type": "string"
        }
      ],
      "name": "names",
      "outputs": [
        {
          "internalType": "bool",
          "name": "",
          "type": "bool"
        }
      ],
      "stateMutability": "view",
      "type": "function"
    },
    {
      "inputs": [],
      "name": "owner",
      "outputs": [
        {
          "internalType": "address",
          "name": "",
          "type": "address"
        }
      ],
      "stateMutability": "view",
      "type": "function"
    },
    {
      "inputs": [],
      "name": "renounceOwnership",
      "outputs": [],
      "stateMutability": "nonpayable",
      "type": "function"
    },
    {
      "inputs": [
        {
          "internalType": "bytes32",
          "name": "root_",
          "type": "bytes32"
        },
        {
          "internalType": "uint256",
          "name": "deadline_",
          "type": "uint256"
        }
      ],
      "name": "setDeadline",
      "outputs": [],
      "stateMutability": "nonpayable",
      "type": "function"
    },
    {
      "inputs": [
        {
          "internalType": "address",
          "name": "flushAddress_",
          "type": "address"
        }
      ],
      "name": "setFlushAddress",
      "outputs": [],
      "stateMutability": "nonpayable",
      "type": "function"
    },
    {
      "inputs": [
        {
          "internalType": "address",
          "name": "",
          "type": "address"
        }
      ],
      "name": "tokenMerkleRoot",
      "outputs": [
        {
          "internalType": "bytes32",
          "name": "",
          "type": "bytes32"
        }
      ],
      "stateMutability": "view",
      "type": "function"
    },
    {
      "inputs": [
        {
          "internalType": "bytes32",
          "name": "",
          "type": "bytes32"
        }
      ],
      "name": "totalClaimed",
      "outputs": [
        {
          "internalType": "uint256",
          "name": "",
          "type": "uint256"
        }
      ],
      "stateMutability": "view",
      "type": "function"
    },
    {
      "inputs": [
        {
          "internalType": "address",
          "name": "newOwner",
          "type": "address"
        }
      ],
      "name": "transferOwnership",
      "outputs": [],
      "stateMutability": "nonpayable",
      "type": "function"
    },
    {
      "inputs": [
        {
          "internalType": "bytes32",
          "name": "",
          "type": "bytes32"
        },
        {
          "internalType": "address",
          "name": "",
          "type": "address"
        }
      ],
      "name": "userClaims",
      "outputs": [
        {
          "internalType": "bool",
          "name": "",
          "type": "bool"
        }
      ],
      "stateMutability": "view",
      "type": "function"
    }
  ],
  "bytecode": "0x60806040526005805460ff191690553480156200001b57600080fd5b5060405162001908380380620019088339810160408190526200003e91620003b7565b620000493362000203565b600180546001600160a01b0319166001600160a01b03841617905560005b8151811015620001fa5760405180606001604052808383815181106200009d57634e487b7160e01b600052603260045260246000fd5b6020026020010151600001518152602001838381518110620000cf57634e487b7160e01b600052603260045260246000fd5b60200260200101516020015181526020018383815181106200010157634e487b7160e01b600052603260045260246000fd5b602002602001015160400151815250600260008484815181106200013557634e487b7160e01b600052603260045260246000fd5b6020026020010151602001518152602001908152602001600020600082015181600001556020820151816001015560408201518160020190805190602001906200018192919062000253565b5090505060016007838381518110620001aa57634e487b7160e01b600052603260045260246000fd5b602002602001015160400151604051620001c59190620004a9565b908152604051908190036020019020805491151560ff1990921691909117905580620001f18162000595565b91505062000067565b505050620005d3565b600080546001600160a01b038381166001600160a01b0319831681178455604051919092169283917f8be0079c531659141344cd1fd0a4f28419497f9722a3daafe3b4186f6b6457e09190a35050565b828054620002619062000558565b90600052602060002090601f016020900481019282620002855760008555620002d0565b82601f10620002a057805160ff1916838001178555620002d0565b82800160010185558215620002d0579182015b82811115620002d0578251825591602001919060010190620002b3565b50620002de929150620002e2565b5090565b5b80821115620002de5760008155600101620002e3565b6000606082840312156200030b578081fd5b62000315620004c7565b82518152602080840151818301526040840151919250906001600160401b03808211156200034257600080fd5b818501915085601f8301126200035757600080fd5b8151818111156200036c576200036c620005bd565b62000380601f8201601f19168501620004f2565b915080825286848285010111156200039757600080fd5b620003a88185840186860162000525565b50604084015250909392505050565b60008060408385031215620003ca578182fd5b82516001600160a01b0381168114620003e1578283fd5b602084810151919350906001600160401b038082111562000400578384fd5b818601915086601f83011262000414578384fd5b815181811115620004295762000429620005bd565b8060051b6200043a858201620004f2565b8281528581019085870183870188018c101562000455578889fd5b8893505b8484101562000497578051868111156200047157898afd5b620004818d8a838b0101620002f9565b8452506001939093019291870191870162000459565b50809750505050505050509250929050565b60008251620004bd81846020870162000525565b9190910192915050565b604051606081016001600160401b0381118282101715620004ec57620004ec620005bd565b60405290565b604051601f8201601f191681016001600160401b03811182821017156200051d576200051d620005bd565b604052919050565b60005b838110156200054257818101518382015260200162000528565b8381111562000552576000848401525b50505050565b600181811c908216806200056d57607f821691505b602082108114156200058f57634e487b7160e01b600052602260045260246000fd5b50919050565b6000600019821415620005b657634e487b7160e01b81526011600452602481fd5b5060010190565b634e487b7160e01b600052604160045260246000fd5b61132580620005e36000396000f3fe608060405234801561001057600080fd5b50600436106100f55760003560e01c806394c1a95011610097578063bbbf799f11610066578063bbbf799f14610247578063c3c392841461025a578063f2fde38b1461026d578063fe5a53771461028057600080fd5b806394c1a950146101ee57806395d4b75f1461020157806395f5c12014610214578063ad920c491461023457600080fd5b8063715018a6116100d3578063715018a61461017e57806379c76e1a14610188578063822fbf581461019b5780638da5cb5b146101c957600080fd5b806327add159146100fa578063288857971461013d5780632dcd1f2a14610150575b600080fd5b610128610108366004610eb5565b600460209081526000928352604080842090915290825290205460ff1681565b60405190151581526020015b60405180910390f35b61012861014b366004610de1565b6102a2565b61017061015e366004610e9d565b60066020526000908152604090205481565b604051908152602001610134565b610186610496565b005b610186610196366004610dc0565b6104cc565b6101286101a9366004610f01565b805160208183018101805160078252928201919093012091525460ff1681565b6000546001600160a01b03165b6040516001600160a01b039091168152602001610134565b6101866101fc366004610f3c565b610603565b61018661020f366004610ee0565b6107c8565b610170610222366004610dc0565b60036020526000908152604090205481565b6001546101d6906001600160a01b031681565b610186610255366004610dc0565b61085d565b610186610268366004610fc7565b6108f6565b61018661027b366004610dc0565b6109d2565b61029361028e366004610e9d565b610a6d565b60405161013493929190611201565b60008381526002602052604081205442106102f65760405162461bcd60e51b815260206004820152600f60248201526e0496e76616c69642061697264726f7608c1b60448201526064015b60405180910390fd5b86805190602001206002600086815260200190815260200160002060020160405161032191906110f0565b6040518091039020146103655760405162461bcd60e51b815260206004820152600c60248201526b496e76616c6964206e616d6560a01b60448201526064016102ed565b60008481526004602090815260408083206001600160a01b038c16845290915290205460ff16156103ca5760405162461bcd60e51b815260206004820152600f60248201526e105b1c9958591e4818db185a5b5959608a1b60448201526064016102ed565b600086888a886040516020016103e394939291906110a0565b60405160208183030381529060405280519060200120905061043b848480806020026020016040519081016040528093929190818152602001838360200280828437600092019190915250899250859150610b1a9050565b6104875760405162461bcd60e51b815260206004820152601760248201527f41697264726f703a20496e76616c69642070726f6f662e00000000000000000060448201526064016102ed565b50600198975050505050505050565b6000546001600160a01b031633146104c05760405162461bcd60e51b81526004016102ed906111cc565b6104ca6000610b30565b565b6000546001600160a01b031633146104f65760405162461bcd60e51b81526004016102ed906111cc565b6001546040516370a0823160e01b815230600482015282916001600160a01b038084169263a9059cbb92919091169083906370a082319060240160206040518083038186803b15801561054857600080fd5b505afa15801561055c573d6000803e3d6000fd5b505050506040513d601f19601f82011682018060405250810190610580919061105c565b6040516001600160e01b031960e085901b1681526001600160a01b0390921660048301526024820152604401602060405180830381600087803b1580156105c657600080fd5b505af11580156105da573d6000803e3d6000fd5b505050506040513d601f19601f820116820180604052508101906105fe9190610e7d565b505050565b60055460ff16156106465760405162461bcd60e51b815260206004820152600d60248201526c49732070726f63657373696e6760981b60448201526064016102ed565b6005805460ff1916600117905533610663818888888888886102a2565b6106a15760405162461bcd60e51b815260206004820152600f60248201526e556e61626c6520746f20636c61696d60881b60448201526064016102ed565b60008481526004602090815260408083206001600160a01b03851684528252808320805460ff191660011790558683526006909152812080548792906106e8908490611229565b909155505060405163a9059cbb60e01b81526001600160a01b0382811660048301526024820187905287169063a9059cbb90604401602060405180830381600087803b15801561073757600080fd5b505af115801561074b573d6000803e3d6000fd5b505050506040513d601f19601f8201168201806040525081019061076f9190610e7d565b50806001600160a01b03167f44e9102adfd5c1b6fb75e6bfcee8c29943ce70fa40306f8ca946292a7d3218cc8887876040516107ad939291906111a7565b60405180910390a250506005805460ff191690555050505050565b6000546001600160a01b031633146107f25760405162461bcd60e51b81526004016102ed906111cc565b600082815260026020526040902060010154821461084b5760405162461bcd60e51b8152602060048201526016602482015275105a5c991c9bdc081c9bdbdd081b9bdd08199bdd5b9960521b60448201526064016102ed565b60009182526002602052604090912055565b6000546001600160a01b031633146108875760405162461bcd60e51b81526004016102ed906111cc565b6001600160a01b0381166108d45760405162461bcd60e51b815260206004820152601460248201527343616e6e6f74206265206164647265737328302960601b60448201526064016102ed565b600180546001600160a01b0319166001600160a01b0392909216919091179055565b6000546001600160a01b031633146109205760405162461bcd60e51b81526004016102ed906111cc565b60078160400151604051610934919061118b565b9081526040519081900360200190205460ff16156109945760405162461bcd60e51b815260206004820152601b60248201527f41697264726f70206e616d65206d75737420626520756e69717565000000000060448201526064016102ed565b6020808201805160009081526002808452604091829020855181559251600184015590840151805185946109cc938501920190610c3a565b50505050565b6000546001600160a01b031633146109fc5760405162461bcd60e51b81526004016102ed906111cc565b6001600160a01b038116610a615760405162461bcd60e51b815260206004820152602660248201527f4f776e61626c653a206e6577206f776e657220697320746865207a65726f206160448201526564647265737360d01b60648201526084016102ed565b610a6a81610b30565b50565b600260208190526000918252604090912080546001820154928201805491939291610a979061126d565b80601f0160208091040260200160405190810160405280929190818152602001828054610ac39061126d565b8015610b105780601f10610ae557610100808354040283529160200191610b10565b820191906000526020600020905b815481529060010190602001808311610af357829003601f168201915b5050505050905083565b600082610b278584610b80565b14949350505050565b600080546001600160a01b038381166001600160a01b0319831681178455604051919092169283917f8be0079c531659141344cd1fd0a4f28419497f9722a3daafe3b4186f6b6457e09190a35050565b600081815b8451811015610c32576000858281518110610bb057634e487b7160e01b600052603260045260246000fd5b60200260200101519050808311610bf2576040805160208101859052908101829052606001604051602081830303815290604052805190602001209250610c1f565b60408051602081018390529081018490526060016040516020818303038152906040528051906020012092505b5080610c2a816112a8565b915050610b85565b509392505050565b828054610c469061126d565b90600052602060002090601f016020900481019282610c685760008555610cae565b82601f10610c8157805160ff1916838001178555610cae565b82800160010185558215610cae579182015b82811115610cae578251825591602001919060010190610c93565b50610cba929150610cbe565b5090565b5b80821115610cba5760008155600101610cbf565b80356001600160a01b0381168114610cea57600080fd5b919050565b60008083601f840112610d00578081fd5b50813567ffffffffffffffff811115610d17578182fd5b6020830191508360208260051b8501011115610d3257600080fd5b9250929050565b600082601f830112610d49578081fd5b813567ffffffffffffffff80821115610d6457610d646112d9565b604051601f8301601f19908116603f01168101908282118183101715610d8c57610d8c6112d9565b81604052838152866020858801011115610da4578485fd5b8360208701602083013792830160200193909352509392505050565b600060208284031215610dd1578081fd5b610dda82610cd3565b9392505050565b600080600080600080600060c0888a031215610dfb578283fd5b610e0488610cd3565b9650602088013567ffffffffffffffff80821115610e20578485fd5b610e2c8b838c01610d39565b9750610e3a60408b01610cd3565b965060608a0135955060808a0135945060a08a0135915080821115610e5d578384fd5b50610e6a8a828b01610cef565b989b979a50959850939692959293505050565b600060208284031215610e8e578081fd5b81518015158114610dda578182fd5b600060208284031215610eae578081fd5b5035919050565b60008060408385031215610ec7578182fd5b82359150610ed760208401610cd3565b90509250929050565b60008060408385031215610ef2578182fd5b50508035926020909101359150565b600060208284031215610f12578081fd5b813567ffffffffffffffff811115610f28578182fd5b610f3484828501610d39565b949350505050565b60008060008060008060a08789031215610f54578182fd5b863567ffffffffffffffff80821115610f6b578384fd5b610f778a838b01610d39565b9750610f8560208a01610cd3565b965060408901359550606089013594506080890135915080821115610fa8578384fd5b50610fb589828a01610cef565b979a9699509497509295939492505050565b600060208284031215610fd8578081fd5b813567ffffffffffffffff80821115610fef578283fd5b9083019060608286031215611002578283fd5b60405160608101818110838211171561101d5761101d6112d9565b80604052508235815260208301356020820152604083013582811115611041578485fd5b61104d87828601610d39565b60408301525095945050505050565b60006020828403121561106d578081fd5b5051919050565b6000815180845261108c816020860160208601611241565b601f01601f19169290920160200192915050565b60006bffffffffffffffffffffffff19808760601b16835285516110cb816014860160208a01611241565b60609590951b1691909301601481019190915260288101919091526048019392505050565b600080835482600182811c91508083168061110c57607f831692505b602080841082141561112c57634e487b7160e01b87526022600452602487fd5b81801561114057600181146111515761117d565b60ff1986168952848901965061117d565b60008a815260209020885b868110156111755781548b82015290850190830161115c565b505084890196505b509498975050505050505050565b6000825161119d818460208701611241565b9190910192915050565b6060815260006111ba6060830186611074565b60208301949094525060400152919050565b6020808252818101527f4f776e61626c653a2063616c6c6572206973206e6f7420746865206f776e6572604082015260600190565b8381528260208201526060604082015260006112206060830184611074565b95945050505050565b6000821982111561123c5761123c6112c3565b500190565b60005b8381101561125c578181015183820152602001611244565b838111156109cc5750506000910152565b600181811c9082168061128157607f821691505b602082108114156112a257634e487b7160e01b600052602260045260246000fd5b50919050565b60006000198214156112bc576112bc6112c3565b5060010190565b634e487b7160e01b600052601160045260246000fd5b634e487b7160e01b600052604160045260246000fdfea264697066735822122011f95a8f643dcc81d8039a8aef12f80d0f46718a4020e25f1fbd912937320bb064736f6c63430008040033",
  "linkReferences": {},
  "deployedLinkReferences": {}
}